{
  "_format": "hh-sol-artifact-1",
  "contractName": "MyEpicNFT",
  "sourceName": "contracts/MyEpicNFT.sol",
  "abi": [
    {
      "inputs": [
        {
          "internalType": "uint256",
          "name": "totalSupply",
          "type": "uint256"
        }
      ],
      "stateMutability": "nonpayable",
      "type": "constructor"
    },
    {
      "anonymous": false,
      "inputs": [
        {
          "indexed": true,
          "internalType": "address",
          "name": "owner",
          "type": "address"
        },
        {
          "indexed": true,
          "internalType": "address",
          "name": "approved",
          "type": "address"
        },
        {
          "indexed": true,
          "internalType": "uint256",
          "name": "tokenId",
          "type": "uint256"
        }
      ],
      "name": "Approval",
      "type": "event"
    },
    {
      "anonymous": false,
      "inputs": [
        {
          "indexed": true,
          "internalType": "address",
          "name": "owner",
          "type": "address"
        },
        {
          "indexed": true,
          "internalType": "address",
          "name": "operator",
          "type": "address"
        },
        {
          "indexed": false,
          "internalType": "bool",
          "name": "approved",
          "type": "bool"
        }
      ],
      "name": "ApprovalForAll",
      "type": "event"
    },
    {
      "anonymous": false,
      "inputs": [
        {
          "indexed": false,
          "internalType": "address",
          "name": "sender",
          "type": "address"
        },
        {
          "indexed": false,
          "internalType": "uint256",
          "name": "tokenId",
          "type": "uint256"
        }
      ],
      "name": "NewEpicNFTMinted",
      "type": "event"
    },
    {
      "anonymous": false,
      "inputs": [
        {
          "indexed": true,
          "internalType": "address",
          "name": "from",
          "type": "address"
        },
        {
          "indexed": true,
          "internalType": "address",
          "name": "to",
          "type": "address"
        },
        {
          "indexed": true,
          "internalType": "uint256",
          "name": "tokenId",
          "type": "uint256"
        }
      ],
      "name": "Transfer",
      "type": "event"
    },
    {
      "inputs": [
        {
          "internalType": "address",
          "name": "to",
          "type": "address"
        },
        {
          "internalType": "uint256",
          "name": "tokenId",
          "type": "uint256"
        }
      ],
      "name": "approve",
      "outputs": [],
      "stateMutability": "nonpayable",
      "type": "function"
    },
    {
      "inputs": [
        {
          "internalType": "address",
          "name": "owner",
          "type": "address"
        }
      ],
      "name": "balanceOf",
      "outputs": [
        {
          "internalType": "uint256",
          "name": "",
          "type": "uint256"
        }
      ],
      "stateMutability": "view",
      "type": "function"
    },
    {
      "inputs": [
        {
          "internalType": "uint256",
          "name": "tokenId",
          "type": "uint256"
        }
      ],
      "name": "getApproved",
      "outputs": [
        {
          "internalType": "address",
          "name": "",
          "type": "address"
        }
      ],
      "stateMutability": "view",
      "type": "function"
    },
    {
      "inputs": [
        {
          "internalType": "uint256",
          "name": "tokenId",
          "type": "uint256"
        }
      ],
      "name": "getThreeRandomWords",
      "outputs": [
        {
          "internalType": "string[3]",
          "name": "",
          "type": "string[3]"
        }
      ],
      "stateMutability": "view",
      "type": "function"
    },
    {
      "inputs": [],
      "name": "getTotalNFTsMintedSoFar",
      "outputs": [
        {
          "internalType": "uint256",
          "name": "",
          "type": "uint256"
        }
      ],
      "stateMutability": "view",
      "type": "function"
    },
    {
      "inputs": [
        {
          "internalType": "address",
          "name": "owner",
          "type": "address"
        },
        {
          "internalType": "address",
          "name": "operator",
          "type": "address"
        }
      ],
      "name": "isApprovedForAll",
      "outputs": [
        {
          "internalType": "bool",
          "name": "",
          "type": "bool"
        }
      ],
      "stateMutability": "view",
      "type": "function"
    },
    {
      "inputs": [],
      "name": "makeAnEpicNFT",
      "outputs": [],
      "stateMutability": "nonpayable",
      "type": "function"
    },
    {
      "inputs": [],
      "name": "name",
      "outputs": [
        {
          "internalType": "string",
          "name": "",
          "type": "string"
        }
      ],
      "stateMutability": "view",
      "type": "function"
    },
    {
      "inputs": [
        {
          "internalType": "uint256",
          "name": "tokenId",
          "type": "uint256"
        }
      ],
      "name": "ownerOf",
      "outputs": [
        {
          "internalType": "address",
          "name": "",
          "type": "address"
        }
      ],
      "stateMutability": "view",
      "type": "function"
    },
    {
      "inputs": [
        {
          "internalType": "address",
          "name": "from",
          "type": "address"
        },
        {
          "internalType": "address",
          "name": "to",
          "type": "address"
        },
        {
          "internalType": "uint256",
          "name": "tokenId",
          "type": "uint256"
        }
      ],
      "name": "safeTransferFrom",
      "outputs": [],
      "stateMutability": "nonpayable",
      "type": "function"
    },
    {
      "inputs": [
        {
          "internalType": "address",
          "name": "from",
          "type": "address"
        },
        {
          "internalType": "address",
          "name": "to",
          "type": "address"
        },
        {
          "internalType": "uint256",
          "name": "tokenId",
          "type": "uint256"
        },
        {
          "internalType": "bytes",
          "name": "_data",
          "type": "bytes"
        }
      ],
      "name": "safeTransferFrom",
      "outputs": [],
      "stateMutability": "nonpayable",
      "type": "function"
    },
    {
      "inputs": [
        {
          "internalType": "address",
          "name": "operator",
          "type": "address"
        },
        {
          "internalType": "bool",
          "name": "approved",
          "type": "bool"
        }
      ],
      "name": "setApprovalForAll",
      "outputs": [],
      "stateMutability": "nonpayable",
      "type": "function"
    },
    {
      "inputs": [
        {
          "internalType": "bytes4",
          "name": "interfaceId",
          "type": "bytes4"
        }
      ],
      "name": "supportsInterface",
      "outputs": [
        {
          "internalType": "bool",
          "name": "",
          "type": "bool"
        }
      ],
      "stateMutability": "view",
      "type": "function"
    },
    {
      "inputs": [],
      "name": "symbol",
      "outputs": [
        {
          "internalType": "string",
          "name": "",
          "type": "string"
        }
      ],
      "stateMutability": "view",
      "type": "function"
    },
    {
      "inputs": [
        {
          "internalType": "uint256",
          "name": "tokenId",
          "type": "uint256"
        }
      ],
      "name": "tokenURI",
      "outputs": [
        {
          "internalType": "string",
          "name": "",
          "type": "string"
        }
      ],
      "stateMutability": "view",
      "type": "function"
    },
    {
      "inputs": [
        {
          "internalType": "address",
          "name": "from",
          "type": "address"
        },
        {
          "internalType": "address",
          "name": "to",
          "type": "address"
        },
        {
          "internalType": "uint256",
          "name": "tokenId",
          "type": "uint256"
        }
      ],
      "name": "transferFrom",
      "outputs": [],
      "stateMutability": "nonpayable",
      "type": "function"
    }
  ],
  "bytecode": "0x608060405260405180610160016040528061012f81526020016200457961012f91396009908051906020019062000038929190620006ab565b506040518060c001604052806040518060400160405280600981526020017f416772656561626c65000000000000000000000000000000000000000000000081525081526020016040518060400160405280600981526020017f4f626e6f78696f7573000000000000000000000000000000000000000000000081525081526020016040518060400160405280600681526020017f537069666679000000000000000000000000000000000000000000000000000081525081526020016040518060400160405280600881526020017f5472616e7175696c00000000000000000000000000000000000000000000000081525081526020016040518060400160405280600981526020017f4d6f6d656e746f7573000000000000000000000000000000000000000000000081525081526020016040518060400160405280600a81526020017f4e6f6e6368616c616e7400000000000000000000000000000000000000000000815250815250600a906006620001b69291906200073c565b506040518060c001604052806040518060400160405280600781526020017f53656c666973680000000000000000000000000000000000000000000000000081525081526020016040518060400160405280600b81526020017f4f75747374616e64696e6700000000000000000000000000000000000000000081525081526020016040518060400160405280600681526020017f537475726479000000000000000000000000000000000000000000000000000081525081526020016040518060400160405280600681526020017f436f6f696e67000000000000000000000000000000000000000000000000000081525081526020016040518060400160405280600581526020017f507573687900000000000000000000000000000000000000000000000000000081525081526020016040518060400160405280600a81526020017f4167677265737369766500000000000000000000000000000000000000000000815250815250600b906006620003349291906200073c565b506040518060c001604052806040518060400160405280600481526020017f426174680000000000000000000000000000000000000000000000000000000081525081526020016040518060400160405280600581526020017f537465616b00000000000000000000000000000000000000000000000000000081525081526020016040518060400160405280600581526020017f5069616e6f00000000000000000000000000000000000000000000000000000081525081526020016040518060400160405280600481526020017f596561720000000000000000000000000000000000000000000000000000000081525081526020016040518060400160405280600881526020017f446973617374657200000000000000000000000000000000000000000000000081525081526020016040518060400160405280600481526020017f506f657400000000000000000000000000000000000000000000000000000000815250815250600c906006620004b29291906200073c565b50348015620004c057600080fd5b50604051620046a8380380620046a88339818101604052810190620004e6919062000847565b6040518060400160405280600981526020017f5371756172654e465400000000000000000000000000000000000000000000008152506040518060400160405280600681526020017f535155415245000000000000000000000000000000000000000000000000000081525081600090805190602001906200056a929190620006ab565b50806001908051906020019062000583929190620006ab565b505050620005d16040518060400160405280601e81526020017f54686973206973206d79204e465420636f6e74726163742e2057686f61210000815250620005df60201b6200127e1760201c565b8060088190555050620009c4565b6200067f81604051602401620005f69190620008b4565b6040516020818303038152906040527f41304fac000000000000000000000000000000000000000000000000000000007bffffffffffffffffffffffffffffffffffffffffffffffffffffffff19166020820180517bffffffffffffffffffffffffffffffffffffffffffffffffffffffff83818316178352505050506200068260201b60201c565b50565b60008151905060006a636f6e736f6c652e6c6f679050602083016000808483855afa5050505050565b828054620006b99062000934565b90600052602060002090601f016020900481019282620006dd576000855562000729565b82601f10620006f857805160ff191683800117855562000729565b8280016001018555821562000729579182015b82811115620007285782518255916020019190600101906200070b565b5b509050620007389190620007a3565b5090565b82805482825590600052602060002090810192821562000790579160200282015b828111156200078f5782518290805190602001906200077e929190620006ab565b50916020019190600101906200075d565b5b5090506200079f9190620007c2565b5090565b5b80821115620007be576000816000905550600101620007a4565b5090565b5b80821115620007e65760008181620007dc9190620007ea565b50600101620007c3565b5090565b508054620007f89062000934565b6000825580601f106200080c57506200082d565b601f0160209004906000526020600020908101906200082c9190620007a3565b5b50565b6000815190506200084181620009aa565b92915050565b6000602082840312156200085a57600080fd5b60006200086a8482850162000830565b91505092915050565b60006200088082620008d8565b6200088c8185620008e3565b93506200089e818560208601620008fe565b620008a98162000999565b840191505092915050565b60006020820190508181036000830152620008d0818462000873565b905092915050565b600081519050919050565b600082825260208201905092915050565b6000819050919050565b60005b838110156200091e57808201518184015260208101905062000901565b838111156200092e576000848401525b50505050565b600060028204905060018216806200094d57607f821691505b602082108114156200096457620009636200096a565b5b50919050565b7f4e487b7100000000000000000000000000000000000000000000000000000000600052602260045260246000fd5b6000601f19601f8301169050919050565b620009b581620008f4565b8114620009c157600080fd5b50565b613ba580620009d46000396000f3fe608060405234801561001057600080fd5b50600436106101005760003560e01c806370a0823111610097578063b88d4fde11610066578063b88d4fde146102bf578063c87b56dd146102db578063de9d132f1461030b578063e985e9c51461031557610100565b806370a082311461022557806395d89b4114610255578063a22cb46514610273578063a542c7831461028f57610100565b8063095ea7b3116100d3578063095ea7b3146101a157806323b872dd146101bd57806342842e0e146101d95780636352211e146101f557610100565b806301ffc9a714610105578063060475901461013557806306fdde0314610153578063081812fc14610171575b600080fd5b61011f600480360381019061011a9190612538565b610345565b60405161012c9190612d54565b60405180910390f35b61013d610427565b60405161014a9190612fcf565b60405180910390f35b61015b610438565b6040516101689190612d6f565b60405180910390f35b61018b6004803603810190610186919061258a565b6104ca565b6040516101989190612ca2565b60405180910390f35b6101bb60048036038101906101b691906124fc565b61054f565b005b6101d760048036038101906101d291906123f6565b610667565b005b6101f360048036038101906101ee91906123f6565b6106c7565b005b61020f600480360381019061020a919061258a565b6106e7565b60405161021c9190612ca2565b60405180910390f35b61023f600480360381019061023a9190612391565b610799565b60405161024c9190612fcf565b60405180910390f35b61025d610851565b60405161026a9190612d6f565b60405180910390f35b61028d600480360381019061028891906124c0565b6108e3565b005b6102a960048036038101906102a4919061258a565b610a64565b6040516102b69190612d32565b60405180910390f35b6102d960048036038101906102d49190612445565b610dbe565b005b6102f560048036038101906102f0919061258a565b610e20565b6040516103029190612d6f565b60405180910390f35b610313610f72565b005b61032f600480360381019061032a91906123ba565b6111ea565b60405161033c9190612d54565b60405180910390f35b60007f80ac58cd000000000000000000000000000000000000000000000000000000007bffffffffffffffffffffffffffffffffffffffffffffffffffffffff1916827bffffffffffffffffffffffffffffffffffffffffffffffffffffffff1916148061041057507f5b5e139f000000000000000000000000000000000000000000000000000000007bffffffffffffffffffffffffffffffffffffffffffffffffffffffff1916827bffffffffffffffffffffffffffffffffffffffffffffffffffffffff1916145b80610420575061041f82611317565b5b9050919050565b60006104336007611381565b905090565b606060008054610447906132a1565b80601f0160208091040260200160405190810160405280929190818152602001828054610473906132a1565b80156104c05780601f10610495576101008083540402835291602001916104c0565b820191906000526020600020905b8154815290600101906020018083116104a357829003601f168201915b5050505050905090565b60006104d58261138f565b610514576040517f08c379a000000000000000000000000000000000000000000000000000000000815260040161050b90612f2f565b60405180910390fd5b6004600083815260200190815260200160002060009054906101000a900473ffffffffffffffffffffffffffffffffffffffff169050919050565b600061055a826106e7565b90508073ffffffffffffffffffffffffffffffffffffffff168373ffffffffffffffffffffffffffffffffffffffff1614156105cb576040517f08c379a00000000000000000000000000000000000000000000000000000000081526004016105c290612f8f565b60405180910390fd5b8073ffffffffffffffffffffffffffffffffffffffff166105ea6113fb565b73ffffffffffffffffffffffffffffffffffffffff1614806106195750610618816106136113fb565b6111ea565b5b610658576040517f08c379a000000000000000000000000000000000000000000000000000000000815260040161064f90612e6f565b60405180910390fd5b6106628383611403565b505050565b6106786106726113fb565b826114bc565b6106b7576040517f08c379a00000000000000000000000000000000000000000000000000000000081526004016106ae90612faf565b60405180910390fd5b6106c283838361159a565b505050565b6106e283838360405180602001604052806000815250610dbe565b505050565b6000806002600084815260200190815260200160002060009054906101000a900473ffffffffffffffffffffffffffffffffffffffff169050600073ffffffffffffffffffffffffffffffffffffffff168173ffffffffffffffffffffffffffffffffffffffff161415610790576040517f08c379a000000000000000000000000000000000000000000000000000000000815260040161078790612eaf565b60405180910390fd5b80915050919050565b60008073ffffffffffffffffffffffffffffffffffffffff168273ffffffffffffffffffffffffffffffffffffffff16141561080a576040517f08c379a000000000000000000000000000000000000000000000000000000000815260040161080190612e8f565b60405180910390fd5b600360008373ffffffffffffffffffffffffffffffffffffffff1673ffffffffffffffffffffffffffffffffffffffff168152602001908152602001600020549050919050565b606060018054610860906132a1565b80601f016020809104026020016040519081016040528092919081815260200182805461088c906132a1565b80156108d95780601f106108ae576101008083540402835291602001916108d9565b820191906000526020600020905b8154815290600101906020018083116108bc57829003601f168201915b5050505050905090565b6108eb6113fb565b73ffffffffffffffffffffffffffffffffffffffff168273ffffffffffffffffffffffffffffffffffffffff161415610959576040517f08c379a000000000000000000000000000000000000000000000000000000000815260040161095090612e2f565b60405180910390fd5b80600560006109666113fb565b73ffffffffffffffffffffffffffffffffffffffff1673ffffffffffffffffffffffffffffffffffffffff16815260200190815260200160002060008473ffffffffffffffffffffffffffffffffffffffff1673ffffffffffffffffffffffffffffffffffffffff16815260200190815260200160002060006101000a81548160ff0219169083151502179055508173ffffffffffffffffffffffffffffffffffffffff16610a136113fb565b73ffffffffffffffffffffffffffffffffffffffff167f17307eab39ab6107e8899845ad3d59bd9653f200f220920489ca2b5937696c3183604051610a589190612d54565b60405180910390a35050565b610a6c6121f6565b6000610a9e610a7a846117f6565b604051602001610a8a9190612c5e565b6040516020818303038152906040526119a3565b90506000610ad2610aae856117f6565b604051602001610abe9190612bca565b6040516020818303038152906040526119a3565b90506000610b06610ae2866117f6565b604051602001610af29190612c5e565b6040516020818303038152906040526119a3565b90506040518060600160405280600a808054905086610b25919061334d565b81548110610b5c577f4e487b7100000000000000000000000000000000000000000000000000000000600052603260045260246000fd5b906000526020600020018054610b71906132a1565b80601f0160208091040260200160405190810160405280929190818152602001828054610b9d906132a1565b8015610bea5780601f10610bbf57610100808354040283529160200191610bea565b820191906000526020600020905b815481529060010190602001808311610bcd57829003601f168201915b50505050508152602001600b808054905085610c06919061334d565b81548110610c3d577f4e487b7100000000000000000000000000000000000000000000000000000000600052603260045260246000fd5b906000526020600020018054610c52906132a1565b80601f0160208091040260200160405190810160405280929190818152602001828054610c7e906132a1565b8015610ccb5780601f10610ca057610100808354040283529160200191610ccb565b820191906000526020600020905b815481529060010190602001808311610cae57829003601f168201915b50505050508152602001600c808054905084610ce7919061334d565b81548110610d1e577f4e487b7100000000000000000000000000000000000000000000000000000000600052603260045260246000fd5b906000526020600020018054610d33906132a1565b80601f0160208091040260200160405190810160405280929190818152602001828054610d5f906132a1565b8015610dac5780601f10610d8157610100808354040283529160200191610dac565b820191906000526020600020905b815481529060010190602001808311610d8f57829003601f168201915b50505050508152509350505050919050565b610dcf610dc96113fb565b836114bc565b610e0e576040517f08c379a0000000000000000000000000000000000000000000000000000000008152600401610e0590612faf565b60405180910390fd5b610e1a848484846119d6565b50505050565b6060610e2b8261138f565b610e6a576040517f08c379a0000000000000000000000000000000000000000000000000000000008152600401610e6190612f0f565b60405180910390fd5b6000600660008481526020019081526020016000208054610e8a906132a1565b80601f0160208091040260200160405190810160405280929190818152602001828054610eb6906132a1565b8015610f035780601f10610ed857610100808354040283529160200191610f03565b820191906000526020600020905b815481529060010190602001808311610ee657829003601f168201915b505050505090506000610f14611a32565b9050600081511415610f2a578192505050610f6d565b600082511115610f5f578082604051602001610f47929190612b46565b60405160208183030381529060405292505050610f6d565b610f6884611a49565b925050505b919050565b600854610f7d610427565b10610f896008546117f6565b604051602001610f999190612c31565b60405160208183030381529060405290610fe9576040517f08c379a0000000000000000000000000000000000000000000000000000000008152600401610fe09190612d6f565b60405180910390fd5b506000610ff66007611381565b9050600061100382610a64565b9050600081600060038110611041577f4e487b7100000000000000000000000000000000000000000000000000000000600052603260045260246000fd5b602002015182600160038110611080577f4e487b7100000000000000000000000000000000000000000000000000000000600052603260045260246000fd5b6020020151836002600381106110bf577f4e487b7100000000000000000000000000000000000000000000000000000000600052603260045260246000fd5b60200201516040516020016110d693929190612b6a565b604051602081830303815290604052905060006009826040516020016110fd929190612b9b565b604051602081830303815290604052905060006111428361111d84611af0565b60405160200161112e929190612bec565b604051602081830303815290604052611af0565b90506000816040516020016111579190612c80565b60405160208183030381529060405290506111723387611cae565b61117c8682611ccc565b61119f604051806060016040528060278152602001613b09602791398733611d40565b6111a96007611ddf565b7febb98688741ffa4c7589bf325de30cf7becb63de567842e1ccdb6cb949fdc82c33876040516111da929190612d09565b60405180910390a1505050505050565b6000600560008473ffffffffffffffffffffffffffffffffffffffff1673ffffffffffffffffffffffffffffffffffffffff16815260200190815260200160002060008373ffffffffffffffffffffffffffffffffffffffff1673ffffffffffffffffffffffffffffffffffffffff16815260200190815260200160002060009054906101000a900460ff16905092915050565b611314816040516024016112929190612d6f565b6040516020818303038152906040527f41304fac000000000000000000000000000000000000000000000000000000007bffffffffffffffffffffffffffffffffffffffffffffffffffffffff19166020820180517bffffffffffffffffffffffffffffffffffffffffffffffffffffffff8381831617835250505050611df5565b50565b60007f01ffc9a7000000000000000000000000000000000000000000000000000000007bffffffffffffffffffffffffffffffffffffffffffffffffffffffff1916827bffffffffffffffffffffffffffffffffffffffffffffffffffffffff1916149050919050565b600081600001549050919050565b60008073ffffffffffffffffffffffffffffffffffffffff166002600084815260200190815260200160002060009054906101000a900473ffffffffffffffffffffffffffffffffffffffff1673ffffffffffffffffffffffffffffffffffffffff1614159050919050565b600033905090565b816004600083815260200190815260200160002060006101000a81548173ffffffffffffffffffffffffffffffffffffffff021916908373ffffffffffffffffffffffffffffffffffffffff160217905550808273ffffffffffffffffffffffffffffffffffffffff16611476836106e7565b73ffffffffffffffffffffffffffffffffffffffff167f8c5be1e5ebec7d5bd14f71427d1e84f3dd0314c0f7b2291e5b200ac8c7c3b92560405160405180910390a45050565b60006114c78261138f565b611506576040517f08c379a00000000000000000000000000000000000000000000000000000000081526004016114fd90612e4f565b60405180910390fd5b6000611511836106e7565b90508073ffffffffffffffffffffffffffffffffffffffff168473ffffffffffffffffffffffffffffffffffffffff16148061158057508373ffffffffffffffffffffffffffffffffffffffff16611568846104ca565b73ffffffffffffffffffffffffffffffffffffffff16145b80611591575061159081856111ea565b5b91505092915050565b8273ffffffffffffffffffffffffffffffffffffffff166115ba826106e7565b73ffffffffffffffffffffffffffffffffffffffff1614611610576040517f08c379a000000000000000000000000000000000000000000000000000000000815260040161160790612f4f565b60405180910390fd5b600073ffffffffffffffffffffffffffffffffffffffff168273ffffffffffffffffffffffffffffffffffffffff161415611680576040517f08c379a000000000000000000000000000000000000000000000000000000000815260040161167790612e0f565b60405180910390fd5b61168b838383611e1e565b611696600082611403565b6001600360008573ffffffffffffffffffffffffffffffffffffffff1673ffffffffffffffffffffffffffffffffffffffff16815260200190815260200160002060008282546116e691906131b7565b925050819055506001600360008473ffffffffffffffffffffffffffffffffffffffff1673ffffffffffffffffffffffffffffffffffffffff168152602001908152602001600020600082825461173d91906130d6565b92505081905550816002600083815260200190815260200160002060006101000a81548173ffffffffffffffffffffffffffffffffffffffff021916908373ffffffffffffffffffffffffffffffffffffffff160217905550808273ffffffffffffffffffffffffffffffffffffffff168473ffffffffffffffffffffffffffffffffffffffff167fddf252ad1be2c89b69c2b068fc378daa952ba7f163c4a11628f55a4df523b3ef60405160405180910390a4505050565b6060600082141561183e576040518060400160405280600181526020017f3000000000000000000000000000000000000000000000000000000000000000815250905061199e565b600082905060005b6000821461187057808061185990613304565b915050600a82611869919061312c565b9150611846565b60008167ffffffffffffffff8111156118b2577f4e487b7100000000000000000000000000000000000000000000000000000000600052604160045260246000fd5b6040519080825280601f01601f1916602001820160405280156118e45781602001600182028036833780820191505090505b5090505b60008514611997576001826118fd91906131b7565b9150600a8561190c919061334d565b603061191891906130d6565b60f81b818381518110611954577f4e487b7100000000000000000000000000000000000000000000000000000000600052603260045260246000fd5b60200101907effffffffffffffffffffffffffffffffffffffffffffffffffffffffffffff1916908160001a905350600a85611990919061312c565b94506118e8565b8093505050505b919050565b6000816040516020016119b69190612b2f565b6040516020818303038152906040528051906020012060001c9050919050565b6119e184848461159a565b6119ed84848484611e23565b611a2c576040517f08c379a0000000000000000000000000000000000000000000000000000000008152600401611a2390612dcf565b60405180910390fd5b50505050565b606060405180602001604052806000815250905090565b6060611a548261138f565b611a93576040517f08c379a0000000000000000000000000000000000000000000000000000000008152600401611a8a90612f6f565b60405180910390fd5b6000611a9d611a32565b90506000815111611abd5760405180602001604052806000815250611ae8565b80611ac7846117f6565b604051602001611ad8929190612b46565b6040516020818303038152906040525b915050919050565b60606000825190506000811415611b195760405180602001604052806000815250915050611ca9565b60006003600283611b2a91906130d6565b611b34919061312c565b6004611b40919061315d565b90506000602082611b5191906130d6565b67ffffffffffffffff811115611b90577f4e487b7100000000000000000000000000000000000000000000000000000000600052604160045260246000fd5b6040519080825280601f01601f191660200182016040528015611bc25781602001600182028036833780820191505090505b5090506000604051806060016040528060408152602001613b30604091399050600181016020830160005b86811015611c665760038101905062ffffff818a015116603f8160121c168401518060081b905060ff603f83600c1c1686015116810190508060081b905060ff603f8360061c1686015116810190508060081b905060ff603f831686015116810190508060e01b90508084526004840193505050611bed565b506003860660018114611c805760028114611c9057611c9b565b613d3d60f01b6002830352611c9b565b603d60f81b60018303525b508484525050819450505050505b919050565b611cc8828260405180602001604052806000815250611fba565b5050565b611cd58261138f565b611d14576040517f08c379a0000000000000000000000000000000000000000000000000000000008152600401611d0b90612ecf565b60405180910390fd5b80600660008481526020019081526020016000209080519060200190611d3b92919061221d565b505050565b611dda838383604051602401611d5893929190612d91565b6040516020818303038152906040527fe3849f79000000000000000000000000000000000000000000000000000000007bffffffffffffffffffffffffffffffffffffffffffffffffffffffff19166020820180517bffffffffffffffffffffffffffffffffffffffffffffffffffffffff8381831617835250505050611df5565b505050565b6001816000016000828254019250508190555050565b60008151905060006a636f6e736f6c652e6c6f679050602083016000808483855afa5050505050565b505050565b6000611e448473ffffffffffffffffffffffffffffffffffffffff16612015565b15611fad578373ffffffffffffffffffffffffffffffffffffffff1663150b7a02611e6d6113fb565b8786866040518563ffffffff1660e01b8152600401611e8f9493929190612cbd565b602060405180830381600087803b158015611ea957600080fd5b505af1925050508015611eda57506040513d601f19601f82011682018060405250810190611ed79190612561565b60015b611f5d573d8060008114611f0a576040519150601f19603f3d011682016040523d82523d6000602084013e611f0f565b606091505b50600081511415611f55576040517f08c379a0000000000000000000000000000000000000000000000000000000008152600401611f4c90612dcf565b60405180910390fd5b805181602001fd5b63150b7a0260e01b7bffffffffffffffffffffffffffffffffffffffffffffffffffffffff1916817bffffffffffffffffffffffffffffffffffffffffffffffffffffffff191614915050611fb2565b600190505b949350505050565b611fc48383612028565b611fd16000848484611e23565b612010576040517f08c379a000000000000000000000000000000000000000000000000000000000815260040161200790612dcf565b60405180910390fd5b505050565b600080823b905060008111915050919050565b600073ffffffffffffffffffffffffffffffffffffffff168273ffffffffffffffffffffffffffffffffffffffff161415612098576040517f08c379a000000000000000000000000000000000000000000000000000000000815260040161208f90612eef565b60405180910390fd5b6120a18161138f565b156120e1576040517f08c379a00000000000000000000000000000000000000000000000000000000081526004016120d890612def565b60405180910390fd5b6120ed60008383611e1e565b6001600360008473ffffffffffffffffffffffffffffffffffffffff1673ffffffffffffffffffffffffffffffffffffffff168152602001908152602001600020600082825461213d91906130d6565b92505081905550816002600083815260200190815260200160002060006101000a81548173ffffffffffffffffffffffffffffffffffffffff021916908373ffffffffffffffffffffffffffffffffffffffff160217905550808273ffffffffffffffffffffffffffffffffffffffff16600073ffffffffffffffffffffffffffffffffffffffff167fddf252ad1be2c89b69c2b068fc378daa952ba7f163c4a11628f55a4df523b3ef60405160405180910390a45050565b60405180606001604052806003905b60608152602001906001900390816122055790505090565b828054612229906132a1565b90600052602060002090601f01602090048101928261224b5760008555612292565b82601f1061226457805160ff1916838001178555612292565b82800160010185558215612292579182015b82811115612291578251825591602001919060010190612276565b5b50905061229f91906122a3565b5090565b5b808211156122bc5760008160009055506001016122a4565b5090565b60006122d36122ce8461300f565b612fea565b9050828152602081018484840111156122eb57600080fd5b6122f684828561325f565b509392505050565b60008135905061230d81613aac565b92915050565b60008135905061232281613ac3565b92915050565b60008135905061233781613ada565b92915050565b60008151905061234c81613ada565b92915050565b600082601f83011261236357600080fd5b81356123738482602086016122c0565b91505092915050565b60008135905061238b81613af1565b92915050565b6000602082840312156123a357600080fd5b60006123b1848285016122fe565b91505092915050565b600080604083850312156123cd57600080fd5b60006123db858286016122fe565b92505060206123ec858286016122fe565b9150509250929050565b60008060006060848603121561240b57600080fd5b6000612419868287016122fe565b935050602061242a868287016122fe565b925050604061243b8682870161237c565b9150509250925092565b6000806000806080858703121561245b57600080fd5b6000612469878288016122fe565b945050602061247a878288016122fe565b935050604061248b8782880161237c565b925050606085013567ffffffffffffffff8111156124a857600080fd5b6124b487828801612352565b91505092959194509250565b600080604083850312156124d357600080fd5b60006124e1858286016122fe565b92505060206124f285828601612313565b9150509250929050565b6000806040838503121561250f57600080fd5b600061251d858286016122fe565b925050602061252e8582860161237c565b9150509250929050565b60006020828403121561254a57600080fd5b600061255884828501612328565b91505092915050565b60006020828403121561257357600080fd5b60006125818482850161233d565b91505092915050565b60006020828403121561259c57600080fd5b60006125aa8482850161237c565b91505092915050565b60006125bf8383612693565b905092915050565b6125d0816131eb565b82525050565b60006125e18261305f565b6125eb818561308d565b9350836020820285016125fd85613040565b8060005b85811015612639578484038952815161261a85826125b3565b945061262583613080565b925060208a01995050600181019050612601565b50829750879550505050505092915050565b612654816131fd565b82525050565b60006126658261306a565b61266f8185613098565b935061267f81856020860161326e565b6126888161343a565b840191505092915050565b600061269e82613075565b6126a881856130a9565b93506126b881856020860161326e565b6126c18161343a565b840191505092915050565b60006126d782613075565b6126e181856130ba565b93506126f181856020860161326e565b6126fa8161343a565b840191505092915050565b600061271082613075565b61271a81856130cb565b935061272a81856020860161326e565b80840191505092915050565b60008154612743816132a1565b61274d81866130cb565b945060018216600081146127685760018114612779576127ac565b60ff198316865281860193506127ac565b6127828561304a565b60005b838110156127a457815481890152600182019150602081019050612785565b838801955050505b50505092915050565b60006127c26032836130ba565b91506127cd8261344b565b604082019050919050565b60006127e5601c836130ba565b91506127f08261349a565b602082019050919050565b60006128086024836130ba565b9150612813826134c3565b604082019050919050565b600061282b6019836130ba565b915061283682613512565b602082019050919050565b600061284e6063836130cb565b91506128598261353b565b606382019050919050565b6000612871600b836130cb565b915061287c826135d6565b600b82019050919050565b6000612894602c836130ba565b915061289f826135ff565b604082019050919050565b60006128b7600d836130cb565b91506128c28261364e565b600d82019050919050565b60006128da6038836130ba565b91506128e582613677565b604082019050919050565b60006128fd602a836130ba565b9150612908826136c6565b604082019050919050565b60006129206029836130ba565b915061292b82613715565b604082019050919050565b6000612943602e836130ba565b915061294e82613764565b604082019050919050565b60006129666017836130cb565b9150612971826137b3565b601782019050919050565b60006129896002836130cb565b9150612994826137dc565b600282019050919050565b60006129ac6020836130ba565b91506129b782613805565b602082019050919050565b60006129cf6031836130ba565b91506129da8261382e565b604082019050919050565b60006129f2602c836130ba565b91506129fd8261387d565b604082019050919050565b6000612a156029836130ba565b9150612a20826138cc565b604082019050919050565b6000612a38602f836130ba565b9150612a438261391b565b604082019050919050565b6000612a5b600a836130cb565b9150612a668261396a565b600a82019050919050565b6000612a7e6013836130cb565b9150612a8982613993565b601382019050919050565b6000612aa16021836130ba565b9150612aac826139bc565b604082019050919050565b6000612ac4600a836130cb565b9150612acf82613a0b565b600a82019050919050565b6000612ae7601d836130cb565b9150612af282613a34565b601d82019050919050565b6000612b0a6031836130ba565b9150612b1582613a5d565b604082019050919050565b612b2981613255565b82525050565b6000612b3b8284612705565b915081905092915050565b6000612b528285612705565b9150612b5e8284612705565b91508190509392505050565b6000612b768286612705565b9150612b828285612705565b9150612b8e8284612705565b9150819050949350505050565b6000612ba78285612736565b9150612bb38284612705565b9150612bbe826128aa565b91508190509392505050565b6000612bd582612864565b9150612be18284612705565b915081905092915050565b6000612bf782612a4e565b9150612c038285612705565b9150612c0e82612841565b9150612c1a8284612705565b9150612c258261297c565b91508190509392505050565b6000612c3c82612a71565b9150612c488284612705565b9150612c5382612959565b915081905092915050565b6000612c6982612ab7565b9150612c758284612705565b915081905092915050565b6000612c8b82612ada565b9150612c978284612705565b915081905092915050565b6000602082019050612cb760008301846125c7565b92915050565b6000608082019050612cd260008301876125c7565b612cdf60208301866125c7565b612cec6040830185612b20565b8181036060830152612cfe818461265a565b905095945050505050565b6000604082019050612d1e60008301856125c7565b612d2b6020830184612b20565b9392505050565b60006020820190508181036000830152612d4c81846125d6565b905092915050565b6000602082019050612d69600083018461264b565b92915050565b60006020820190508181036000830152612d8981846126cc565b905092915050565b60006060820190508181036000830152612dab81866126cc565b9050612dba6020830185612b20565b612dc760408301846125c7565b949350505050565b60006020820190508181036000830152612de8816127b5565b9050919050565b60006020820190508181036000830152612e08816127d8565b9050919050565b60006020820190508181036000830152612e28816127fb565b9050919050565b60006020820190508181036000830152612e488161281e565b9050919050565b60006020820190508181036000830152612e6881612887565b9050919050565b60006020820190508181036000830152612e88816128cd565b9050919050565b60006020820190508181036000830152612ea8816128f0565b9050919050565b60006020820190508181036000830152612ec881612913565b9050919050565b60006020820190508181036000830152612ee881612936565b9050919050565b60006020820190508181036000830152612f088161299f565b9050919050565b60006020820190508181036000830152612f28816129c2565b9050919050565b60006020820190508181036000830152612f48816129e5565b9050919050565b60006020820190508181036000830152612f6881612a08565b9050919050565b60006020820190508181036000830152612f8881612a2b565b9050919050565b60006020820190508181036000830152612fa881612a94565b9050919050565b60006020820190508181036000830152612fc881612afd565b9050919050565b6000602082019050612fe46000830184612b20565b92915050565b6000612ff4613005565b905061300082826132d3565b919050565b6000604051905090565b600067ffffffffffffffff82111561302a5761302961340b565b5b6130338261343a565b9050602081019050919050565b6000819050919050565b60008190508160005260206000209050919050565b600060039050919050565b600081519050919050565b600081519050919050565b6000602082019050919050565b600081905092915050565b600082825260208201905092915050565b600082825260208201905092915050565b600082825260208201905092915050565b600081905092915050565b60006130e182613255565b91506130ec83613255565b9250827fffffffffffffffffffffffffffffffffffffffffffffffffffffffffffffffff038211156131215761312061337e565b5b828201905092915050565b600061313782613255565b915061314283613255565b925082613152576131516133ad565b5b828204905092915050565b600061316882613255565b915061317383613255565b9250817fffffffffffffffffffffffffffffffffffffffffffffffffffffffffffffffff04831182151516156131ac576131ab61337e565b5b828202905092915050565b60006131c282613255565b91506131cd83613255565b9250828210156131e0576131df61337e565b5b828203905092915050565b60006131f682613235565b9050919050565b60008115159050919050565b60007fffffffff0000000000000000000000000000000000000000000000000000000082169050919050565b600073ffffffffffffffffffffffffffffffffffffffff82169050919050565b6000819050919050565b82818337600083830152505050565b60005b8381101561328c578082015181840152602081019050613271565b8381111561329b576000848401525b50505050565b600060028204905060018216806132b957607f821691505b602082108114156132cd576132cc6133dc565b5b50919050565b6132dc8261343a565b810181811067ffffffffffffffff821117156132fb576132fa61340b565b5b80604052505050565b600061330f82613255565b91507fffffffffffffffffffffffffffffffffffffffffffffffffffffffffffffffff8214156133425761334161337e565b5b600182019050919050565b600061335882613255565b915061336383613255565b925082613373576133726133ad565b5b828206905092915050565b7f4e487b7100000000000000000000000000000000000000000000000000000000600052601160045260246000fd5b7f4e487b7100000000000000000000000000000000000000000000000000000000600052601260045260246000fd5b7f4e487b7100000000000000000000000000000000000000000000000000000000600052602260045260246000fd5b7f4e487b7100000000000000000000000000000000000000000000000000000000600052604160045260246000fd5b6000601f19601f8301169050919050565b7f4552433732313a207472616e7366657220746f206e6f6e20455243373231526560008201527f63656976657220696d706c656d656e7465720000000000000000000000000000602082015250565b7f4552433732313a20746f6b656e20616c7265616479206d696e74656400000000600082015250565b7f4552433732313a207472616e7366657220746f20746865207a65726f2061646460008201527f7265737300000000000000000000000000000000000000000000000000000000602082015250565b7f4552433732313a20617070726f766520746f2063616c6c657200000000000000600082015250565b7f222c20226465736372697074696f6e223a20224120686967686c79206163636c60008201527f61696d656420636f6c6c656374696f6e206f6620737175617265732e222c202260208201527f696d616765223a2022646174613a696d6167652f7376672b786d6c3b6261736560408201527f36342c0000000000000000000000000000000000000000000000000000000000606082015250565b7f5345434f4e445f574f5244000000000000000000000000000000000000000000600082015250565b7f4552433732313a206f70657261746f7220717565727920666f72206e6f6e657860008201527f697374656e7420746f6b656e0000000000000000000000000000000000000000602082015250565b7f3c2f746578743e3c2f7376673e00000000000000000000000000000000000000600082015250565b7f4552433732313a20617070726f76652063616c6c6572206973206e6f74206f7760008201527f6e6572206e6f7220617070726f76656420666f7220616c6c0000000000000000602082015250565b7f4552433732313a2062616c616e636520717565727920666f7220746865207a6560008201527f726f206164647265737300000000000000000000000000000000000000000000602082015250565b7f4552433732313a206f776e657220717565727920666f72206e6f6e657869737460008201527f656e7420746f6b656e0000000000000000000000000000000000000000000000602082015250565b7f45524337323155524953746f726167653a2055524920736574206f66206e6f6e60008201527f6578697374656e7420746f6b656e000000000000000000000000000000000000602082015250565b7f204e46547320686173206265656e20726561636865642e000000000000000000600082015250565b7f227d000000000000000000000000000000000000000000000000000000000000600082015250565b7f4552433732313a206d696e7420746f20746865207a65726f2061646472657373600082015250565b7f45524337323155524953746f726167653a2055524920717565727920666f722060008201527f6e6f6e6578697374656e7420746f6b656e000000000000000000000000000000602082015250565b7f4552433732313a20617070726f76656420717565727920666f72206e6f6e657860008201527f697374656e7420746f6b656e0000000000000000000000000000000000000000602082015250565b7f4552433732313a207472616e73666572206f6620746f6b656e2074686174206960008201527f73206e6f74206f776e0000000000000000000000000000000000000000000000602082015250565b7f4552433732314d657461646174613a2055524920717565727920666f72206e6f60008201527f6e6578697374656e7420746f6b656e0000000000000000000000000000000000602082015250565b7f7b226e616d65223a202200000000000000000000000000000000000000000000600082015250565b7f54686520746f74616c206c696d6974206f662000000000000000000000000000600082015250565b7f4552433732313a20617070726f76616c20746f2063757272656e74206f776e6560008201527f7200000000000000000000000000000000000000000000000000000000000000602082015250565b7f46495253545f574f524400000000000000000000000000000000000000000000600082015250565b7f646174613a6170706c69636174696f6e2f6a736f6e3b6261736536342c000000600082015250565b7f4552433732313a207472616e736665722063616c6c6572206973206e6f74206f60008201527f776e6572206e6f7220617070726f766564000000000000000000000000000000602082015250565b613ab5816131eb565b8114613ac057600080fd5b50565b613acc816131fd565b8114613ad757600080fd5b50565b613ae381613209565b8114613aee57600080fd5b50565b613afa81613255565b8114613b0557600080fd5b5056fe416e204e4654207769746820494420256420686173206265656e206d696e74656420746f2025734142434445464748494a4b4c4d4e4f505152535455565758595a6162636465666768696a6b6c6d6e6f707172737475767778797a303132333435363738392b2fa2646970667358221220d500e8a0ddf805f973fa9c8dcf93ffdba02ff537d7cdf522ca5128567f7054e064736f6c634300080400333c73766720786d6c6e733d27687474703a2f2f7777772e77332e6f72672f323030302f73766727207072657365727665417370656374526174696f3d27784d696e594d696e206d656574272076696577426f783d273020302033353020333530273e3c7374796c653e2e62617365207b2066696c6c3a2077686974653b20666f6e742d66616d696c793a2073657269663b20666f6e742d73697a653a20323470783b207d3c2f7374796c653e3c726563742077696474683d273130302527206865696768743d2731303025272066696c6c3d27626c61636b27202f3e3c7465787420783d273530252720793d273530252720636c6173733d27626173652720646f6d696e616e742d626173656c696e653d276d6964646c652720746578742d616e63686f723d276d6964646c65273e",
  "linkReferences": {},
  "deployedLinkReferences": {}
}